:020000041004E6
:100000000060002005730510F1700510F3700510F5
:10001000AA5555AA45554C420000000000000000BA
:10002000000000000000000000000000F570051056
:100030000000000000000000F7700510F9700510C6
:1000400001710510B711041000000000000000004D
:10005000037105106B12041005710510FF3E0410AA
:100060000000000000000000000000000000000090
:1000700000000000B34004101F4A0410FF4B04109E
:1000800000000000BF120410371804103B180410C1
:100090003F1804100F300410BF500410F34F041029
:1000A0000000000000000000000000000000000050
:1000B0000000000000000000000000000000000040
:1000C000FDB5B2B03A98049102A93B2288540020B1
:1000D0000D9026A8401C31900DE00498329A90476C
:1000E0000490002801D100F02FFF0D98401C0D90C6
:1000F0003398401C339033980178002910D025297B
:10010000EBD100200790089009900A900B900C907A
:10011000002102240120139008201290339D05E055
:100120000D9800F013FF0800139901436D1C287807
:100130002028F8D023280BD02B2804D02D2804D039
:10014000302808D00AE02143F0E708000421ECE75A
:1001500008000821E9E708001021E6E72A280FD166
:10016000349802681068121D349B1A600F900028A2
:1001700004D542420F920800042101436D1C12E095
:1001800000200F90654A09E00F9B934205DA9E001C
:10019000F3185B00181830380F906D1C2878030096
:1001A000303B0A2BF0D328782E2803D00020C04300
:1001B0000E9027E06D1C28782A2808D13498006812
:1001C0000268001D349B18600E926D1C1AE02D28E9
:1001D00002D12D226D1C00E0002200200E900CE0C8
:1001E000002A09D10E9B4D4EB34205DA9E00F3184A
:1001F0005B00181830380E906D1C28780300303BD7
:100200000A2BEDD302A801872E78310041487844AB
:10021000FF30C01C00F07EFF002801D06D1C00E004
:10022000002602A83A214654405C682804D1287868
:1002300068280BD1622005E06C2807D128786C284B
:1002400004D1712002A93A2288546D1C17A8069087
:10025000287869460870681C339068460278100058
:10026000253833D01C3800D10EE2001F022800D8F8
:100270000AE2133801D100F08BFD093800D103E206
:10028000801E01D100F021FE401E01D100F0CEFD04
:10029000401E022800D8F7E1001F01D100F0C6FD82
:1002A000401F00D149E1401E01D100F071FD401E08
:1002B00000D1EBE0C01E10D0801E01D100F068FD1F
:1002C000C01E01D100F064FD00F00AFE252017A930
:1002D00008701398079000F00EFE349800680468C8
:1002E000001D349908600594002C00D0BAE002A8E3
:1002F0003B21405C002800D1ADE00024E4430648E7
:100300007844143000F01CFF201A01D000F01CFECD
:1003100000F0F1FDC05C0100F45C0100CBCCCC0C22
:10032000641E01D000F006FE3295079D17AC002D2B
:100330000FD0329E227802A9300000F0BFFE0028C4
:1003400002D4641C6D1EF5D13296002801D000F055
:10035000FBFD3020694608700A9C002C0DDD329DA3
:1003600001236A4602A9280000F0B9FE002801D046
:1003700000F0EAFD641EF3D13295059C089D002D26
:100380000FD0329E227802A9300000F097FE00289C
:1003900002D4641C6D1EF5D13296002801D000F005
:1003A000D3FD302769460F700B9C002C0DDD329D6C
:1003B00001236A4602A9280000F091FE002801D01E
:1003C00000F0C2FD641EF3D13295059808994418D7
:1003D000099D002D0FD0329E227802A9300000F036
:1003E0006DFE002802D4641C6D1EF5D132960028E3
:1003F00001D000F0A9FD684607700C9C002C0DDDB3
:10040000329D01236A4602A9280000F068FE0028F8
:1004100001D000F099FD641EF3D1329502A8382175
:10042000405C400700D466E62020694608700198C9
:10043000002800DC5FE6019C329D01236A4602A988
:10044000280000F04CFE002801D000F07DFD641E65
:10045000F3D132954FE63F487844FF30C01F0590F6
:1004600000F049FD0E9D002D03D5200000F08CFE0C
:1004700009E02A000021200000F092FE002801D0AF
:10048000001B00E02800089000F035FD349800685B
:100490000268001D349908600020C043002110400C
:1004A00002AA03C217A80590069A3C2302A803C813
:1004B000002904D1002802D10E9C002C13D05B1E11
:1004C00005072D0F3035EEB23A2E00DB2735D55417
:1004D00000090C072043090901D1002803D0059C1D
:1004E000D518AC42EBD33C20C01A0890D118059126
:1004F0000E99884208DA081A0A9002A8018FB84AB1
:100500000A40028700F0F7FC002901D400F0F3FC58
:1005100002A93822895C14220A40102A01D000F076
:10052000EAFC0F99079A891A0A9A891A081A002868
:1005300001DC00F0E0FC00F029FC02A83B21415C5A
:10054000002909D00024E4434B487844FF302B3085
:10055000D8E600BFD45A01003A21405C62286AD034
:10056000682819D06A2845D06C2806D071284FD049
:10057000742831D07A2821D06FE03498006801685F
:10058000001D349A106000297AD10024E4433B48CE
:100590007844FF301738B5E6349800680168001DCC
:1005A000349A1060002905D10024E443334878448C
:1005B000CA30A7E60D98088000F09DFC34980068CA
:1005C0000168001D349A1060002959D10024E443C9
:1005D0002A487844A63095E6349800680168001DE2
:1005E000349A106000294BD10024E4432348784416
:1005F0008A3087E6349800680268001D34990860E4
:10060000002A13D10024E4431C4878446E3079E674
:10061000349800680268001D34990860002A05D1EA
:100620000024E4431548784452306BE60D98C11716
:1006300003C200F060FC349800680168001D349A21
:100640001060002905D10024E4430C4878442C3084
:1006500058E60D98087000F04EFC34980068016868
:10066000001D349A106000290AD10024E443034895
:100670007844083046E600BF64590100785901000B
:100680000D98086000F037FC34980368DB1D0720E4
:1006900083433498036003CB349D2B6002AB03C3C8
:1006A0002023C80F04D007982D2117AB19540DE053
:1006B00002A8008F204204D007982B2117AB1954B1
:1006C00004E0C00704D5079817A90B54401C0790F5
:1006D00017A807994318059326AC02A803C814ADC0
:1006E00003C568460078202101436846817061296E
:1006F00009D00E98002801D5062003E003D1672910
:1007000001D113980E9002A803C8080041004915B2
:10071000491C10D100030ED003200890613A1A2A18
:1007200004D251497944FF31413116E04F497944AF
:10073000FF313B3111E002A803C808004100491510
:10074000491C0FD100030DD103200890613A1A2AE9
:1007500015D347497944FF3119310322180000F0BD
:1007600045FDC8E302A80CC8BAA003C8194000267A
:1007700080277F03B94207D2002059400DE03D4950
:100780007944FF310F39E8E7080DB04E36181000F4
:100790001900B24B0B40AE49194302AA03C2684686
:1007A000807861280FD1059830210170811C059156
:1007B00069460978612901D1782100E0582141700A
:1007C0000798801C079002A803C8A2A20CCA024086
:1007D0000B4007D1002A05D10026002581E100BF8A
:1007E000EFFF000068468078612800D0B9E00E98DD
:1007F000002801D5212000E0401C1690169F7F1C88
:1008000014A803C80022002300F0FDFC02A830C891
:1008100002D2802000064540361F019626A90A70A4
:1008200026A8461C002F54DD20002900002280232A
:100830005B0300F001FD4CD869004A0D11001C312A
:10084000002A19D0002917DDAF4A914206DB1005B6
:100850002900802212061140014311E07F4A2A40FC
:100860000805104305000DE0C4570100C4570100FE
:10087000C8570100C057010029008022120611400C
:1008800000240D002000290000F0F0FC1490FF1F50
:10089000002F09DD00F024FD02000B0020002900DC
:1008A00000F085FD04000D00F01D0721149A002AB8
:1008B0000ADD491E08D4401E13071B0F03701211D6
:1008C000F5E7401E00220270491EFAD5C61D002F12
:1008D000AADC26A83199711A26AA541C169A0E0071
:1008E000914200DD1600002E34D48E4205DA411C00
:1008F000895D082901DB0F2100E00021320026ABD1
:100900009B1801E0761E5B1E521E1D788D42F9D0A9
:100910000F2904D1411C895C491C401C8154002AC8
:1009200004D526AC761C0198001D0190711E11D4CF
:1009300062186846007813783033DDB23A2D02DB56
:1009400005003A3D5B191370491E521E0029F2D56D
:10095000694608700E98002800D4C1E0701E0E9001
:10096000BEE014A830C86D006D08694930004843E6
:10097000684900F0A9FD019007200199401A05DDA2
:1009800002002000290000F073FB0AE04242002030
:10099000614900F06DFB02000B002000290000F00F
:1009A000EDFD6A469278662A02D1019A0A3200E089
:1009B00006220E9B9A18142A00DD142226AB30243E
:1009C0001C705C1C02E014A803C8169A002A47DDBC
:1009D00014AB03C3169214A803C800F059FC30905E
:1009E00006460834042530000A2100F070FD0F008F
:1009F00030000A2100F06BFD06003037601E0770E2
:100A000030000A2100F063FD0F0030000A2100F0E1
:100A10005EFD0600A41E303727706D1EE3D108343A
:100A20001698083816900028CDDD309800F048FC64
:100A300002000B0014A803C800F0B9FC0022374BD9
:100A400000F0FDFD14AA03C2C5E700BF02FCFFFFD2
:100A50000000E03FFFFFFFFFFFFFFF7FFFFF0F8072
:100A60003198201A26A94C1C019902E0401E491E0B
:100A7000641C2278302AF9D0019169468978662968
:100A800002D10199491C06E069468978652901D19E
:100A9000139900E000210E9A5618B04200DA461E63
:100AA000002E1DD4864204DAA05D342801DD3921F0
:100AB00000E030213200601E831801E0761E5B1ECC
:100AC000521E1D788D42F9D0392902D1A15C491CF2
:100AD000A154002A04D50400761C0198401C019002
:100AE000019D68460078694648700E9F30B2002824
:100AF00003DC139E054C7C441234684680786628DB
:100B00000ED16D1C26E000BFFF070000305501002C
:100B100097750000A08601000000F03F84D7974140
:100B200068468078672846D128B20321C9438842A5
:100B300047DBB84245DA6D1C02A8008F1299C0B29B
:100B4000084203D130B2B84200DA070028B23F1A97
:100B500000D5002728B2002800DDB5E00898411C28
:100B600008913021059A1154002F05DC02A8008F4E
:100B70001299C0B2084205D00898411C08912E2154
:100B8000059A115428B241428F4200DA7D422DB2BB
:100B900068420B907D1930B2854200DA2E0036B2E1
:100BA0000996320021000598089BC01800F01EFB32
:100BB000A81B0C90D4E068464078612818D17020BA
:100BC0001BE030B2B84206DA02A9098F129AC9B204
:100BD000114200D107007F1E00D5002768464078EB
:100BE000672802D16520694607E04520694604E090
:100BF00068464078412801D1502048700898411C2F
:100C000008912178059A1154611C002F05DC02A877
:100C1000008F129AC0B2104218D00898421C089255
:100C20002E22059B1A54002F10DD741E20B287421D
:100C300000DA3C0022B20598089BC01800F0D6FAF2
:100C400024B2089800190890381B0B900598089951
:100C5000401869464978017029B2002903D42B2134
:100C60004170861C03E02D224270861C4D420024F8
:100C700012A928000D0005E00A2100F025FC2970CA
:100C8000641C6D1C00B20028F6DC012C08DC6846F0
:100C9000407820210143652902D130203070761C34
:100CA000002C09D130203070761C07E0641E12A899
:100CB000005D30303070761C002CF7DC0598089908
:100CC0004018301A09904BE030B229B288421DDA40
:100CD00032B221000598089BC01800F087FA36B29E
:100CE0000898801908902DB2A91B0B91002F05DCE4
:100CF00002A9098F129AC9B2114205D02E21059A74
:100D000011540998401C09900C9729E02AB221003F
:100D10000598089BC01800F069FA28B208990918CC
:100D20000891751B002F05DC02AA128F129BD2B20C
:100D30001A4204D04A1C08922E22059B5A5429B20A
:100D40008F4200DA3D002AB221180598089BC0188E
:100D500000F04CFA2DB2089840190890781B0B90BF
:100D600002A83821405C14210140102900D0C2E0C3
:100D70000798089940180B994018099940180C9940
:100D800040180F99884200DBB5E0081A0A90B2E0DB
:100D900002AA3A20105C622808D068280ED06A287F
:100DA00014D06C281DD0712810D01AE03498016836
:100DB0000868091D349B1960C0B218E034980168B6
:100DC0000868091D349B196080B210E034980368EC
:100DD000DB1D072083433498036003CB349C2360DE
:100DE00006E0349801680868091D349B19600021E9
:100DF00002AB03C3108F1299C0B208425BD002A8A5
:100E000003C8002901D1002855D068460078202168
:100E1000014378294FD1079817A930220A54401C62
:100E2000421C07926A4612780A5444E002AA3A2009
:100E3000105C622808D068280ED06A2814D06C286C
:100E40001DD0712810D01AE0349801680868091D77
:100E5000349B196040B218E0349801680868091D95
:100E6000349B196000B210E034980368DB1D072042
:100E700083433498036003CB349D2B6006E03498A1
:100E800001680868091D349B1960C11702AB03C3D0
:100E9000002902DA07982D2109E0108F204202D0A4
:100EA00007982B2103E0C00705D50798202117AA32
:100EB0001154401C079017A80799401805906846E0
:100EC000017802A800F044F815E0139807903498D0
:100ED00000680168001D349A106017A801700AE0CC
:100EE000252017A9087013980790684600780028F5
:100EF00001D04A7007940F980799401A0A99401A2E
:100F00000899401A0B99401A0999401A0C99401AED
:100F1000019002A83821405C400701D5FFF705FA8F
:100F20002020694608700198002801DCFFF7FDF9D0
:100F3000019C329D01236A4602A9280000F0CFF8E7
:100F4000002801D1FFF7ECF90020C04335B0F0BD17
:100F5000F2B586B0040025696F2901D1082707E0A2
:100F6000084620210143782901D00A2700E01027F4
:100F70003C2603CC083C04AA03C26A46127E642ABB
:100F800003D06A46127E692A09D1002907DA04A82B
:100F900003C800220023121A8B4104A80CC004A825
:100FA00003C800290DD100280BD1206B002808D1DF
:100FB000082F3BD13820205C000737D53B26302056
:100FC00033E00294009504A830C8761E01962000F4
:100FD00029003A00FB1700F0F4FB3032D0B23A2877
:100FE00003DB6846007E51381218009882552000B5
:100FF00029003A00FB1700F0E4FB04000D0001D1CA
:10100000002C05D00298C068009989198842DCD369
:10101000029C009D082F09D13820205C000705D5CF
:10102000A85D302802D0761E3020A8553C20801BB9
:10103000A061A919E160216B884206DA081A2062D2
:10104000208F1C490140218710E000290ED538214E
:10105000615C14220A40102A08D1616B6269891A06
:10106000226A891A081A002800DD206207B0F0BD44
:10107000F8B50026104F04000D00009214E0C007E0
:1010800007D532003B002000290000F0D8FA040008
:101090000D000098401000903000390032003B00F5
:1010A00000F0CDFA06000F0000980028E7D12000DC
:1010B0002900F4BDEFFF00000000244010B503003C
:1010C0000C001100A0689847A060002804D0E06AD6
:1010D000401CE062002010BD0020C04310BDF8B5E8
:1010E0000024002B11D007000E0014001D002178F1
:1010F000B068B847B060002809D0F06A401CF062C0
:101100000020641C6D1EF2D104002000F2BD0020FE
:10111000C043F9E7C9B202788A4203D0401C002AD2
:10112000F9D1002070470C0802170D0101020909CE
:101130000101060209FFFFFFFFFF0909FFFFFFFF93
:1011400080B5002801D100BF07A006490B68002B1D
:1011500003D022220021984701E000F067FB222003
:1011600002BD000060040020636F6E7374726169D9
:101170006E742068616E646C65723A2062616420EE
:101180006D65737361676500431C0178401C0942FB
:10119000FBD1C01A70470268531C0360117070477E
:1011A000C9B2521E05D30378401C8B42F9D1401EB0
:1011B000704700207047704770B4103A03D378C965
:1011C000103A78C0FBD2530701D318C918C001D513
:1011D00008C908C0D20704D30B880380891C801C6F
:1011E000002A01D50B78037070BC70478B0701D1C2
:1011F0008307E1D0124205D00B78491C0370401CD4
:10120000521EF9D1704730B4012464054D00EC4200
:101210000BD85D00EC4208D80C001C43640004436A
:10122000144304D2994200D1904230BC7047FCD0A4
:101230008B42FAD18242F8E730B4012464054D00B4
:10124000EC420BD85D00EC4208D80C001C43640053
:101250000443144304D28B4200D1824230BC704715
:10126000FCD09942FAD19042F8E77047F4464A1808
:1012700005D200F00FF801D580174008604700F054
:1012800009F80121C907884200D908004042604797
:101290004A1812D2400DC90208430121C907084368
:1012A000520D40210901521A521C06D452421F32DB
:1012B00001D4D0407047C017704700207047704776
:1012C000010042221201D21E004207D002D4521E57
:1012D0000018FCD5C10A40051205891870470000A6
:1012E0000100EED54042F446FFF7EBFF0122D207A2
:1012F000114360478B4200D1824205D984461000D9
:1013000062468C4619006346DF184C18640D7F0D49
:101310003AD0661C760537D0E61B352E34DCDB026E
:101320002B43DB0A0C0DC9022943C912202E0DDB09
:101330001700203E06D01F00F741F3405F40002613
:10134000012A7741C01871410DD217E01700F7410B
:10135000F2405740F3415A40B340F3405A40002610
:10136000801859410AD3A21C52050FD0C207012F81
:10137000724117004008CB0718434908641C240534
:101380004208AF4170416141F0BC7047641C2105C7
:101390000020F9E76B4010E06B40ABE7F742F3D178
:1013A000E943F1E72442EFD100200021ECE7F0B45B
:1013B0000125ED070F005F40EED40C00871A9C4119
:1013C00005D2C01BA141D219634169406B40AE0AEE
:1013D000DF184C18F442E1D2640D7F0DE2D0E61B19
:1013E000362ED1DCDB022B43DB0AA4460C0DC902EE
:1013F0002943C90A012E28DC04D1D6075208DF0789
:101400003A435B08EF0A76429041994114D0394241
:101410003BD1B61940414941761C394204D1761C72
:10142000001849413942FAD0B9436746B74208D952
:10143000A41B24052143A7E70042EAD13642E8D1A4
:10144000A2E7E40AE10700209EE7202E0BDD203E04
:101450001F00F340F7415F40012A002257417E42BE
:10146000984191410BE01700F741F2405740F3419A
:101470005A40B340F3405A407E42904199410A039A
:1014800003D2641EB619404149410027641E240559
:101490004208AE4178416141F0BC7047F4460028F3
:1014A00004D4494200F013F840426047404200290A
:1014B00005D45FD000F00BF84042494260474942F2
:1014C00000F005F84942604703460B43E6D400228A
:1014D000030A8B420BD203098B4219D243088B4279
:1014E0002ED2411A00D20146524110467047FF22C7
:1014F00009023FD012068B4205D3121209028B4219
:1015000001D31212090203098B4219D300E0090A20
:10151000C3098B4201D3CB01C01A524183098B42CC
:1015200001D38B01C01A524143098B4201D34B01B5
:10153000C01A524103098B4201D30B01C01A524118
:10154000C3088B4201D3CB00C01A524183088B429F
:1015500001D38B00C01A524143088B4201D34B0088
:10156000C01A5241884200D3401A5241CFD201469C
:101570001046704708B500F05FF908BDF0B40E00E2
:101580005E400125ED072E40B446AE0ADF184C1828
:10159000F4423BD2F74241D2640D43D07F0D38D0A4
:1015A000E41BC902DB0229432B43CF0ADB0A0600F6
:1015B000B61A9F4104D2641EB6197F41B6185F4126
:1015C0006812800D24180018844222DAE80C0021E9
:1015D000B6197F41B61A9F4102D2B6185F413F1C2F
:1015E00040414941F4D3241C21DD2405B6197F4133
:1015F000B61A9F4105D33743C60737430026012F4C
:101600007041614166463143F0BC7047FCD1F742FE
:1016100005D20020C14349054908F3E704D0002062
:10162000C143F1E77F0DFAD000206146ECE7244288
:10163000FAD1401C61410F03F6D30020E2E7F0B578
:101640000E005E400125ED072E40B446AE0ADF18BD
:101650004C18F44208D2F7420ED2640D01D07F0D2F
:1016600012D100206146F0BD05D1F74201D87F0DAF
:1016700005D10020C143F0BDFBD1640DF9D000209D
:10168000C143490549088FE0E419C902DB02294337
:101690002B43DB0A460DC00231438E4630B487B27D
:1016A00095B27D432E0CADB2140C7C43A419260CCC
:1016B000240425439CB27C43A419190C7943270CBC
:1016C000C919A4B20F043C43090C000C97B247435C
:1016D0002E0CBE193543ADB2170C4743360CBF195B
:1016E000A6B2BF193E043543240C3E0C36199FB2F6
:1016F0004743BF19BCB23E0C89191F0C47437F18E2
:101700003E043443390C704680B297B247432E0CE6
:10171000BE193543ADB2170C4743360CBF19A6B2FC
:10172000BF193E043543240C3E0C36199FB2474383
:10173000BF19BCB23E0C89191F0C47437F183E04E9
:101740003443390C77463F0C90B278432E0C801905
:101750000604ADB22E43050CA0B22D18120C7A432C
:101760005019020C80B2240CA4189AB27A431219B0
:1017700014042043120C89181B0C7B43C91830BC7D
:10178000EF0A394203D1B61940414941641E6F1234
:10179000BF0DE41B0BDBFF19BC4211DA2405002747
:1017A0004208AE417841614166463143F0BD641C58
:1017B00005D1401C6141CF0201D34908F4E750E74D
:1017C0005DE7124224D0994228D970B500251B420A
:1017D00002D00C00002109E00024012649186441D0
:1017E000944200D3A41A7641F8D33100012601E0D7
:1017F000764109D2001864416D41A41A9D41F7D287
:10180000A4185D41B619F5D3300022002B0070BD3D
:101810001B42D8D108B500F011F808BD01D19042A3
:10182000D3D202000B0000210020704780B50120B8
:1018300000F006F801BD7047704770477047704769
:1018400080B500BF00BF024A11001820ABBEFBE705
:1018500026000200F0B5FE48FE4E0168412040011E
:10186000B2680C1885B0D00173D520468030009046
:10187000806B817AEE231940817230465103012535
:10188000C068002942DB510105D500200921C906A5
:101890004860357036E0510012D5C178491E0906FE
:1018A000090EC17003D10922D20651603570417909
:1018B0000A0627D54906490E41718169416121E037
:1018C000E5490A420AD0214620318D70520202D5E4
:1018D00003228A7000E08D7081694161017922469E
:1018E000C17040329179002908D00921C906896860
:1018F000A16400210223E1649377A165417949063F
:10190000490E417100204621085539E031698A8924
:101910000121490752185288436B5218934209D14A
:101920009278142A06D1034640331A7DDF273A40C5
:101930002A431A75806A408840187D210078095D25
:101940000843C00606D4002009213570C906486046
:1019500010E082E2606D00F06FFB01460920C006D6
:101960000269236DD21A1202120A914202D2357014
:1019700000214160F06801220169D20391430161B5
:10198000B268500213D53069808901214907401897
:10199000408840187061F1684B6B834207D18078B2
:1019A0000D2804D101200B69000483430B613746E5
:1019B000002A48DA0098806B418801204007081807
:1019C000F8610920C0064069C00DC00708D000209A
:1019D00009217D70C90648603D70A048B061F1E002
:1019E000F86841210069490108420AD000F0AAFBC9
:1019F000012829D01C22F9694878024201D0001F31
:101A00004870F8697D2201781155C94389071DD0B6
:101A1000F8680069C0036FD500F094FB01286CD012
:101A20001F20F9694978084266D0002009217D709D
:101A3000C90648603D708948B861F86801210269AB
:101A400009048A430261BDE0FC22D4E7867841782C
:101A50001A2E74D2824A925DFF2A70D08A426ED1C9
:101A6000022E14D0F9684A79D20659D4062E15D020
:101A70000A69D30327D5002009227D70D206506061
:101A80003D707648B8610A69001182435BE0F868EE
:101A9000406B0560F9682320487193E00122B86922
:101AA00092031043B8616F4A086910401522520230
:101AB000104308612046C030C17BBA7891422FD1D3
:101AC0000821C1737EE0002E18D0012E29D0032EEC
:101AD0002CD00A2E34D00B2E37D0082E38D0092E19
:101AE00039D00C2E3AD002465F4B3146012000F02F
:101AF00019FB002866D149E05BE058E00A46214620
:101B000000F070FBF8698179C079000208435749F9
:101B1000400240185649896A814200D808466065EB
:101B200050E00A46214600F081FB4BE0B869802373
:101B30001843B8614120000402430A6142E027E0F3
:101B40008920C00105E00A613CE04A480240FAE70A
:101B500010200243F7E70120000326E09607042344
:101B6000002E08DABE691E4302239A430823BE6191
:101B7000CF26335502E0D60700D11A432A430A6123
:101B80000522C01C2C3100F068FB1BE0072E06D09C
:101B9000F8680822016911430161C67112E0F86911
:101BA000C0780E280ED101208006B8610AE0FF201F
:101BB00037E72146FB683A69F86900F057FBB969D5
:101BC0000843B861234FF8683969066A0A8A012315
:101BD0005B07D21801925288D21800237A610293CF
:101BE000BB681127BF043B421ED15F011CD4476B69
:101BF000974201D0012700E000270397904201D0CF
:101C0000012700E00027BC46002E0DD0039F002FC7
:101C10000AD06746002F07D0F77CFF0904D0376849
:101C2000002F01D0012702975B0202D4029B002BF8
:101C300075D043799F0701D5002E1DD05B085B004E
:101C4000476B974257D143719378042B19D02AE000
:101C5000B400002068000020000040800800100050
:101C600026110410DFFBFEFF800000209AFDFFFF1D
:101C7000CC030020BFFFFEFF2B431F462F434771BD
:101C8000DEE72346C033DF7B082F05D1E24FBF7864
:101C9000DF737D277F029F81DF4B01279B69FF0652
:101CA0003B43DD4FBB614379DB060CD5DA4B09279B
:101CB0005D700023FF067B60D74BD84F1D709B697A
:101CC0003B43D54FBB619278152A32D10746403746
:101CD0003A7DFD231A40BC463A75130729D5CE4BF1
:101CE00001279B697F063B43CB4FBB61F7231A401B
:101CF00063461A751DE082421BD0338AB77C0022EE
:101D0000DB1933827369B361B274338AF788BB42DB
:101D100002D2F77CFF0903D03668202205E068E094
:101D2000DB0602D1B3691B68B361BB4B9F693A43C1
:101D30009A6142790027D20717D0B74A436B5361A3
:101D40009A78052A3BD1026920231A4302610020B8
:101D500008704871487088718870C871C8700872BE
:101D6000087148728020487229E0002E0AD000F0E5
:101D7000C7FA002806D1A8483322C1685201096970
:101D8000114209D0A4490122C8684861058001694F
:101D9000D2031143016112E0A14A317C1368092288
:101DA0001202C9069A18C90ED26B0127891C89181C
:101DB0004161019A51803146C06800F0B1FA964EF7
:101DC0002121F0688901006908420AD000F0BAF9BF
:101DD000012809D01F2271694878024201D0001DF4
:101DE0004870002F02D004E0FF22F4E70199B08A86
:101DF0004880894EF26810694106890F1ED080061E
:101E00003178C00F012902D0B16849030BD50028F1
:101E1000306903D0C17D082319430AE0C37DF7214F
:101E20000B40C3750AE000283069C17D03D0F72359
:101E30001940C17502E008231943C1752146336971
:101E4000F06900F0AFFA3078012808D000997548A1
:101E5000896B0322091D00F02DFB05B0F0BD6E4813
:101E60000121C26800695379C77A9C4620231E5C11
:101E700000238372204620300190807803281BD1F4
:101E800093796548002B17D163469B069B0F13D1AE
:101E9000634B1B682033DB7C002B0DD1136A002BB6
:101EA0000AD1CF231B5D8078834205D09089411CE5
:101EB0007043C01989B287B2108F1389400048431C
:101EC0005918118101998978002902D15169091A9B
:101ED000516100998E6BB17A11231943B172214679
:101EE0004D4BC031CE7B9B789E420AD18B891B1A09
:101EF0008B8110D5484E4C4B7570B1691943B16157
:101F000009E053694449002B05DC0E464D70896990
:101F1000464B1943B1616146890605D53E49444E99
:101F20004D708B6933438B6111792646D1704036F1
:101F3000B571E16C80B20818E0649079FB2108402B
:101F40009071C0071AD0B08E1189401A012180B259
:101F5000C903884206D33048364A45708169114327
:101F600081610BE0002809D101230021204600F007
:101F7000A9FA294989690843274988612648C1681F
:101F80008A79900724D5338F0E8923489B1B5B1CCD
:101F900001269BB2F603B34205D34570254A8169F9
:101FA0001143816114E0002B12D1FD231A408A7184
:101FB000026900992132496811700B0A53700B0CA9
:101FC0009370090ED17060340069E17E2030417158
:101FD000384600F0C3FA10490A69D0720198002609
:101FE00086704878002802D0887800F0C5FA0C4C3A
:101FF000582120680D540921090240184078002812
:1020000002D0012000F08CFB012000F089FC206848
:102010004030067605B0F0BD6800002008000100E1
:10202000B4000020FA0030000880400008000400DE
:1020300008000200080008000649C20B09684004B5
:10204000096A400CCB0958435143000A0818203054
:1020500080097047B400002080B500F0A7FF01BDE3
:1020600080B500F0D5FF02BD80B501F0A7FA02BD32
:102070001FB56C46A48C0394089C02946C46A48BF8
:1020800001946C46248B009401F024FB1FBD1FB506
:1020900008AC247802946C46247F0194069C00943A
:1020A00001F008FC04B010BD80B501F0C1FC02BD18
:1020B00080B501F0DFFC02BD0120704780B501F062
:1020C0001DFD01BD80B501F03DFD02BD80B501F0F3
:1020D000B1FD01BD80B501F0ABFE01BD80B501F0E1
:1020E00007FF02BD80B501F00BFF01BD80B501F017
:1020F00029FF01BD80B501F031FF02BD80B501F0BF
:1021000071FF01BD80B501F094FF02BD80B501F003
:10211000B9FF01BD80B501F0BEFF02BD80B501F081
:10212000C9FF01BD80B501F0EFFF02BD80B502F02F
:102130007FF802BD80B502F0B5F802BD80B502F0AF
:10214000DBF802BD0120704780B502F02FF901BD18
:1021500080B502F0DDF901BD80B502F0F5F902BDF0
:1021600080B502F00DFA01BD80B502F021FA01BD83
:102170000120704780B502F055FA01BD80B502F02C
:102180006FFA01BD80B502F0A5FA02BD80B502F07C
:10219000BBFA01BD80B502F0CDFA01BD80B502F0F9
:1021A000E1FA01BD80B502F0F5FA02BD80B502F09A
:1021B00013FB01BD80B502F043FB01BD80B502F009
:1021C00059FB01BD80B502F0A3FB02BD80B502F052
:1021D000D5FB01BD80B502F0FDFB02BD80B502F06C
:1021E0001FFC02BD70B50C460546C1786020015544
:1021F0001646281D02F058FC4034A084A81D02F0A9
:1022000053FC20852846083002F04EFCA085284665
:102210000A3002F049FC208628460C3002F044FCCB
:10222000A086B07901210843B07170BD70B5054634
:1022300016460C46C01C02F03CFC84210851E9798A
:102240007B2001552846083002F02EFC40342087C0
:10225000B07902210843B07170BD04E003780B70BF
:10226000401C491C521E002AF8D17047F8B51D4683
:10227000144606460027FFF765FF01280CD01F20F3
:1022800071780840060036D00020E86102F01CFC9E
:10229000002803D0E86907E0FF20F1E769893246AA
:1022A000012002F021FCE861002801D0102722E083
:1022B000E07D80214840E0751049286908421AD025
:1022C0006079401E60716079FF2814D1A079401EAA
:1022D000A071A079FF280ED1E079401EE071E0796D
:1022E000FF2808D1207A401E2072207AFF2802D1D0
:1022F000607A401E60723846F8BD00002028000059
:1023000006480168492040010818417AC07A814294
:1023100001D901207047002070470000B400002060
:10232000F8B50C46CA88098A4030521A80881026AF
:1023300095B2A84205D20546E07C4006400EE07406
:1023400003E02068002800D10026002904D1207B6A
:10235000800701D5022000E00120CF060643FF0ED2
:10236000E81982B20E48A169036809200002181812
:10237000C06B001D02F0DAFB60610948A5740168BA
:10238000092000020818C16BB81C0E5404480168EB
:10239000092000020818C06BFF1CC555F8BD0000DD
:1023A000B4000020FFB515691E46A8032E3689B07B
:1023B0001C461746002832DA102269463046FFF7DD
:1023C0004CFF0924E4060398A0610298E06101989B
:1023D00020620098606235480168E0140818016FB7
:1023E000A162C06EE0620A988030016C2163C06B0C
:1023F000606302F0BFFBA06B0390E06B02902C487F
:102400000168019140680090102231466846FFF74C
:1024100024FF0120400485433D610DB0F0BDE80577
:102420003CD505A80146009010223046FFF715FF65
:10243000FF20013085434120800205433D6109981A
:10244000082201A9C01CFFF708FF099821460422B1
:102450002A310B30FFF701FF154805A9283802F093
:102460009BFB0924E4060298A0620198E062786B65
:10247000082203A90D30FFF7F0FE049820630398AB
:10248000606302F077FB0A4905A8083902F084FB73
:10249000102231460098FFF7E0FEBEE7A07A000662
:1024A000BBD40A9802F081FBB7E70000B40000201B
:1024B0004000004803E00870000A491C521E002A30
:1024C000F9D17047FFB581B000230093049B012B25
:1024D0002BD04B8C204D1C010B8C9C46CB7E6B4330
:1024E0008D8BAE46CD8B9669A64205D19689664501
:1024F00002D1168FAE4201D040260096967904276D
:10250000760876003E4396719461546164469481E6
:102510001587049A012A17D00B6170464A6840005B
:1025200010184860009805B0F0BD034640331D46C2
:102530001B8E094E1C01AB8D9C4660231B5C7343B4
:10254000AE8C2D8DB646CEE783657146C26C4900D0
:102550005118C164E6E70000E204000005492522A5
:102560004143090C5143401A80B2252800D3253835
:10257000C0B27047EB060000F1B567494122086818
:10258000520182B0821800927B2212018618AC227E
:10259000155C04460346029AC034363395427DD911
:1025A00009210902401817465821006B4F430025A6
:1025B000B91C4554029802F003FB00280CD1564880
:1025C000BF1D0168092000020818006BC05D0028CB
:1025D00002D00098C030057272B64F48029D07685D
:1025E000012039462031CA7DA8408243CA75317D19
:1025F00081433175197808077AD44A070298520F37
:1026000082427CD030462030827E5507029A6D0F80
:10261000954276D181760F2018704122A068520130
:102620007063BD18A86D2169A9652061686D616935
:10263000696560612146284618315C3002F0DAFA9B
:102640003648A37E39180A780B70A276A86C2168E8
:10265000A9642060E86C6168E96460601120C001D1
:1026600039180A78E37E0B7021462846E2761C3141
:10267000643002F0BFFA214628461E31683002F06D
:10268000B9FA2146284620316C3002F0B3FA2146CF
:1026900028462231703002F0ADFA00E03BE02146DE
:1026A00028462431743002F0A5FA21462846263106
:1026B000783002F09FFA194880351D3039182046CD
:1026C00028300A7803780B7002701448E26A2630CA
:1026D000381801680260E1620721E06809050843D3
:1026E000A96B0322091DFFF7E5FE0AE000E006E002
:1026F0003A20805D41070298490F814201D10F20A5
:1027000018702036B07E41070298490F814201D1EE
:102710000F20B07662B6FEBDB40000207E08000037
:10272000F0B57D4D044641212868490191B040181B
:10273000089000200D9072B602F062FA002801D1D4
:10274000002C07D0744800240168092000020818F2
:102750004678DDE062B60D9811B0F0BDF0077DD08F
:102760006E49A00140180E906B48016809200002D4
:102770000818016B582060430D18A978286A49078A
:10278000490F02294AD1A979490747D4002845D0E1
:10279000288F400009900002FFF74EFC03900020B4
:1027A0000F905D4836210068095C0A070AD4490782
:1027B000490FA14206D1012180300F91416C019156
:1027C000806C06E00899C96C01910F21C90140187D
:1027D000406E0090FF205F30FFF72EFC4F490C3910
:1027E000497AC90041180098411A0398081A0790BD
:1027F0000E980B2141562030059100780A90002058
:102800000290288906900920C00601690798401A9D
:10281000070201203F0AC005874229D36BE001204F
:102820000D9003990798401A07900298401802905B
:1028300009990198401A0190696909980818686116
:1028400005990A98081A40B205900698401E80B271
:1028500006900598002804DA253000E055E040B2E3
:1028600005900920C00601690798401A07023F0A2F
:102870006420FFF7E1FB29490C39497AC900411866
:1028800025480068806A0818B84207D20120C005B0
:10289000874203D2099901988842C0D802990098CA
:1028A000401A00020D99000A00290CD01A49012291
:1028B0000968D2028918096F411A09020912002910
:1028C00001DD00210D910F99002906D01249019ACE
:1028D000096880314A64886408E0089A0199D164E3
:1028E0000D490A680F21C901511848660E990598CB
:1028F000C872069828810848012201680920000250
:1029000008184178A24091434170641CE4B27608F3
:10291000002E00D022E71DE7B4000020CC000020EC
:10292000F1B5F74F7B20396800010D18084696B0C5
:1029300068301290092000020818006B13904120A3
:1029400040010E180920C00600690790002003907E
:102950000824EC48FFF770FB02900020149072B638
:102960003868F7224030C1791140C17112980121B5
:102970000171129801684A07520F4271C9081298F2
:10298000C900016062B61698002801D007980DE0D2
:102990006420FFF751FB07994218DB48417AD84879
:1029A0000068806A081810180002000A02F054F942
:1029B000686B04903A20405D0E90082842D20120B6
:1029C00003900E9858214843139940180590CF481A
:1029D000876ACD48407AC00002F0A4FA0146059803
:1029E000008F40020818C74949424018874200D268
:1029F00038467065B82081590A794879897900028A
:102A000010438907890B01430598FF314030028A42
:102A1000408AC3311018401802F08CFA07465F2034
:102A20000001FFF709FBB84204D95F200001FFF75E
:102A300003FB00E0384604990918B348407AC00007
:102A400008181490706DFFF7F7FA04994018019078
:102A5000002007460690287D002809D10E980828F6
:102A600006D3A949002008800921C906486065E10C
:102A700068680890686C0A9029680798401A0002F4
:102A80000412A14800884007400F02F099F800287E
:102A900001D0002007E0002CFBDB204602F042FAC8
:102AA0000A99884200DA0A900120800708240C90D5
:102AB00000200F90297D3AE00E9A904234D0904A3F
:102AC00012682032927D1207120F82422CD0EB6ADC
:102AD0004200069307929F5A05976B6A9A5A089B81
:102AE00092017B43D3180A9A9C46934212DACA0792
:102AF00010D02A6B079B089FD25A521C93B21A46D9
:102B00007A43059F9444FA1892B213460592079FA0
:102B1000069AD3530C9A6346944505D2CA0703D04C
:102B2000059A0C9304460F924908401CC0B2002934
:102B3000C2D10C98FFF780FA29684718A86A61008B
:102B4000405A8001FFF778FAC01906906E48407A23
:102B50005822C1006A480068125C002A6C4A126957
:102B60000CD0BB1A029A52009B1A169A002A01D066
:102B7000002001E0806A4018181A0BE0BB1A029A84
:102B800052089A1A169B002B01D0002001E0806A9F
:102B90004018101A0002000A0121C9050590884258
:102BA00009D3082C7ED0204602F0C8F955490C986C
:102BB00040180A90686401210598C905884200D32D
:102BC00072E7082C6ED00F9800282DD00899484342
:102BD0000590FFF731FA296840180002000A2860C2
:102BE000696C0598081A68640C990598081A002100
:102BF0000C9013E0EA6A480005909446105A0F9A28
:102C0000801A04E02B6B059A401C9A5A1018002871
:102C1000F8DB059B6246491CD052C9B238480068AF
:102C2000A030007B8842E5D80E98082876D2049818
:102C3000C01B01020120090AC005814222D302986B
:102C40003A1A1498101A01020120090AC00581429B
:102C500001D314980DE00199511A0902090A814221
:102C600008D301204002FFF7E7F902994900791AD9
:102C7000081A019001990498081A0002000A02F04B
:102C800051F97065029901984018C01B010201209A
:102C9000090AC005814255D202994A000699521884
:102CA000049900E04AE0511A0902090A814235D22A
:102CB0000E98582148431399421858202146414301
:102CC0001398D37B0818C17B994201D3102100E0EF
:102CD0000021C9061ED48179CA0702D07221895BFE
:102CE00003E0890707D57621895B0289891A491E85
:102CF0000904090C12D0407900060FD422E00DE03F
:102D0000B400002066020000C0000020CC030020B8
:102D10000000004850799021084213D1082C15D0AA
:102D20009E490C98401868645820139960434018D5
:102D300080784007400F01283FD007E00398002823
:102D400004D003D0049F0E9C019806903802000A1C
:102D5000009006980102090A012080020691FFF7FF
:102D60006BF9039001204002FFF766F907460699C8
:102D70000098081A00020012002809DD0399000AD1
:102D8000884200D901460391B84200D83846074628
:102D9000082C7DD0824800884007400FA0424FD0C9
:102DA0005820139960434018059080784007400FE1
:102DB000052812D0022810D042E03146803103208D
:102DC0008A6840028242C1D0C9688142BED002F006
:102DD000F3F84005400DC719B8E70598A101006A4E
:102DE00002906F480818818B059880B2814227D0E5
:102DF0000298002824D002990598FFF791FA6949B2
:102E000002980A68007C09210902C0065118C00E08
:102E1000C96B801C40180290059821210069890126
:102E200008420DD0FFF78EF901283BD01F200299F0
:102E30004978084204D0029840780299001D4870F1
:102E4000584857490068203084744820204308803F
:102E5000334680335A6B907AC106C90E6001014334
:102E600091729A6B917AC906C90E014391720098CA
:102E7000306501F0C5FE012816D04A4800682030B0
:102E8000017D4748407A081A316DC000081800E0FB
:102E90003AE000020121000A490641180920C00653
:102EA00041600EE0FF20C2E70121306D09064118A4
:102EB0000920C00641603B4800682030017D384849
:102EC0004172082C24D2582044431398241872B617
:102ED0001298A17800684907C008C000490F08434C
:102EE000314908400099C90008431299086062B648
:102EF000A0784007400F03280FD0FFF723F90128DF
:102F00000FD00698C01B19E000200921C9064860AF
:102F100023490020088017B0F0BD03990698401A95
:102F20000CE04034208A618A4018FF30C33002F040
:102F300001F8874200D938460699081A0002000AAB
:102F4000E863A88B8001FFF777F82968002644180A
:102F500012483138FFF770F8201A0002000A28647E
:102F6000104C2E8420684030407E002807D002F0AC
:102F700041F820684030417E490849004176206888
:102F80004030407E0028C6D002F058F8206840301B
:102F9000417EFD2211404176BDE70000660200003F
:102FA000C0000020B4000020070000F8F3B589B08D
:102FB0000D4602F067F88002800A01218905084366
:102FC00000226B461024114601E0032A04D2D700E8
:102FD0000646FE401E7000E01970521C5B1C641E09
:102FE0002406240EF1D1002304AA6946099800F0B2
:102FF00041FD03226946281D02F04DF8032204A971
:10300000681C02F048F8012028700BB0F0BD704732
:10301000F0B5A1B001780E91456881681091C7683C
:1030200001691C914069002417940490FF261694AE
:1030300015941E940894A81C02F042F82978000206
:103040004906C90F08433860681D02F039F80002CC
:10305000000A78602846083002F032F82978000229
:10306000C9090843019028460B3002F029F80002F4
:10307000000A0290786800021A90800F012802D19D
:103080003878012800D00020129002980002810FA9
:10309000012903D10199C9B2012900D0002114915D
:1030A0001A99890F02D13978012900D0002119918C
:1030B000800F03D10198C0B201281FD000212878C9
:1030C000FF4B0507186807900246FF321B321F921C
:1030D000FC4A2D0F82181D92002211920F920C9221
:1030E00001221892E0301B92027C0B92002A00D041
:1030F000012213920B9A012A02D005E00121DEE79A
:10310000407C002800D101240E98002811D001280D
:103110004ED0032D02D0052D00D001240498007E4E
:1031200003286ED002286DD001286CD004286AD004
:103130009BE0032D06D0052D04D0042D04D0012DD5
:1031400005D009E0012407E001200F9004E0139866
:10315000002801D10120119010981590801C179023
:10316000109808301690049820300079032810D069
:1031700001280ED000220C92049200280BD00128C6
:1031800009D0002018900B98012806D0012D09D0F5
:103190009FE00122EFE70120F4E7012D74D100291F
:1031A00000D001241498002801D101201190BFE023
:1031B000002D02D0012D00D0012404982030007988
:1031C00001280ED000220C92199A002A01D0002862
:1031D00009D001220492149A002A06D0012D09D0A8
:1031E0001CE00122EFE70022F4E7012D16D10B9A33
:1031F000012A09D00B9A002A0ED0149A002A0BD06B
:103200000CE02BE028E02BE02323079A5B01D21887
:103210001279012A00D1012401221192129A002A66
:1032200002D00B9A002A06D1002801D101220F9268
:10323000129A002A07D00B9A012A45D1002805D1FD
:1032400001201E9002E00B9801283DD1012D77D17D
:1032500000296DD001246BE0052D06D1012404E086
:103260001299002908D0002A06D000210F91032DC1
:1032700004D0052D09D00FE00121F7E70499203192
:10328000497BC90706D107E023E004992031497B37
:10329000890701D501210C910C990491012111910B
:1032A0001099891C17911099083116911099159150
:1032B000012A07D1012801D0042803D11999002936
:1032C00000D00124052D28D0012D31D00E980128E1
:1032D00036D0179801F0F4FE1599000209784906D6
:1032E000C90F084309901798C01C01F0E9FE0002BD
:1032F000000A0A900E98012822D0169801F0E0FEEC
:10330000159900020978C90908430D901698C01C48
:1033100001F0D6FE0002000A1EE012990029D8D062
:10332000012801D00428D4D101200890D1E707E07A
:103330000121079889024018C16D0991006ED8E7F4
:103340001C98016940690A02C303DB0F00041A4399
:10335000000A090E08430D921090002C72D11298A9
:10336000002865D00B98002813D0139800285FD050
:103370001A99386801F0B0FE514B01469D22186839
:10338000D2008218FF2905D0FE2926D0C800801857
:10339000C67981E0052D02D10E99022904D0F221CF
:1033A000095CFF2913D018E00121384601F0BCFE6A
:1033B00041087F2903D0C1001D980818E8E7089943
:1033C0000498084301D0012466E0002464E0112140
:1033D00089014118497EFF2903D00E9901291DD08A
:1033E00013E0FF3007223946013001F054FE344922
:1033F00000200968F222505408464030C279EF2379
:103400001A40C2710E98012801D0049C44E0232088
:103410004001081805E001200F903DE023214901FB
:103420004018C0790228CED20C980028F3D0CAE701
:103430001998002802D00B98012804D0139800286E
:103440000CD104E02FE00020049C1B9024E02321F9
:10345000079849014018007A00281DD01A99386849
:1034600001F0EAFEFF2817D0C1001D980818C679A0
:1034700037201F9970434018017D002900D0012199
:103480002030807D002803D00020002902D003E0F6
:103490000120FAE7002896D109480168112080012F
:1034A000081806754675139800284ED0FF2E10D0C8
:1034B000089800280DD0024801681120800103E01F
:1034C000B40000206C0400000818807DB04200D0D9
:1034D00001241E9800280BD0FF2E09D03648016821
:1034E000112080010818807EB04201D0012445E0FF
:1034F000002C43D11498002829D0012D27D12E4B20
:10350000019A1868C11DF9310D69AA4205D1029AC4
:103510004969120209028A4219D01125AD014119E7
:10352000497E189CFF2910D1FF30072201A90930DC
:1035300001F0B1FD2048EF23016808464030C27910
:103540001A40C271002049194876002C16D11B98E8
:10355000002813D00C98FF2E07D000280ED037205B
:1035600046431F983018807806E0002806D0786817
:103570000102386801F088FE0028B7D00F980028B3
:1035800007D00D983968884210D110987968884220
:103590000CD1002C0AD1119800280AD00199099861
:1035A000884203D102990A98884202D0012021B0B2
:1035B000F0BD0020FBE70000B4000020F8B501F0EA
:1035C0008FFE434C074621680A468031886FCB6FD7
:1035D000381A1818C8674B6F000B984236D3002072
:1035E000E032C8675074107C00282BD000252326B9
:1035F00076010BE03721694308180146FF31FF309F
:1036000040313030FFF7D2FC6D1CEDB220688119DB
:10361000097AA942EED800250BE037216943081842
:103620000146FF31FF3047311F30FFF7BFFC6D1CF3
:10363000EDB220688119097AA942EED821680120EB
:103640008919887121680120E03148742068F821C7
:103650000F5072B601464031CA7910231A43CA711D
:1036600062B60146E0310A7C002A24D0897CFF251D
:10367000002906D1FF30013001F056FD2068E0300E
:10368000857411262168B6018819407EFF2813D061
:10369000372250434018FF30FF31002230300931CB
:1036A00001F028FE002808D0216800208919C8757B
:1036B0002068801945760020F8BD20680121821914
:1036C000FF30D175013081680161C1684161EFE768
:1036D000B4000020FFB593B005460027724802975A
:1036E000039700880C4670494007C00D0C31401804
:1036F000C0890121490740184088FF2346186B48BC
:1037000011210068890141184A7D37215143091868
:103710001B335B5C0793F3799B09012B04D133784E
:103720005B0601D5012300E00023069323235B0100
:10373000C0184079012816D9FF2A14D0002D04D0D2
:10374000707B8009012805D00DE00622FF3102A818
:10375000413106E03078000605D5314606220831B1
:1037600002A801F098FC0698002833D04F48016861
:10377000112080010818407DFF2826D00622B11CA8
:10378000684601F088FC07984949C7004748062267
:10379000006838184118204601F07DFC4348016854
:1037A00023207A1840011018007B3722801CA0715A
:1037B000112080010818407D50434018FF30062238
:1037C000B11C483001F067FC06E00622B11C20461F
:1037D00001F061FC009701973448A4210068095C5E
:1037E000C90701D0002600E0102615990D91099512
:1037F0006168169F0902090E0C9102A90E91694693
:103800000A911C9908911D9907911E990B9409031F
:10381000090C06911F990823C9B280361191F1064F
:1038200003D50B22BF210E4009E037214901411881
:103830004A78920635D5C978890732D509223107E9
:10384000890E08180121C90240184069314601F06B
:103850006BFD040025D00D982071E7800998207237
:103860000C9860722046251D06220A300B9901F043
:1038700012FC284606220C300E9901F00CFC28465A
:10388000062212300A9901F006FC0898288307984E
:1038900068830698A8831198A8772146304601F0DE
:1038A000A1FD17B0F0BD0000C0000020B400002052
:1038B0006D040000FFB55B49964609685A4A8DB011
:1038C0008D18372252018A18944652781127169B78
:1038D00004920C46BF010020179E9206A034CF1917
:1038E0000833002A3DDA6246D278520739D50D9A5C
:1038F000012A36D97246012A33D10E9A002A30D0D5
:103900003A7D0120FF2A19D06F4649C7372042432C
:103910005018FF300130807EC000411843480B181A
:103920002079C00701D0002000E01020A121084329
:103930007146109A10E0012011B0F0BD694649C1EE
:103940002079C00701D0002000E01020A121169BA3
:103950000843012271469B1C01F058FD00285CD1F0
:10396000E9E7F022525C012AE6D13F7DFF2FE3D048
:103970002079C00701D0002400E01024A1200443D6
:103980007046079010980990372047437818FF3009
:103990000130807E0593C000421824480B96101811
:1039A000089018980290032213301043401C83089B
:1039B000E00603D50722BF20044007E004988006F4
:1039C000B9D5604680788007B5D505222007800EDE
:1039D00040180121C90240184069214601F0A4FCA9
:1039E00006001AD007983071099870713546371D56
:1039F00018350622B01D089901F04DFB0298387267
:103A0000FD602846029A059901F045FB0B98387431
:103A10003146204601F0E6FC8DE7296A0020087057
:103A200089E70000B4000020040900006D040000D4
:103A30007CB50446E1200D46800001F02DFD0BA170
:103A400003C900900191684601F038FD012001F0A2
:103A500055FD002801D047207CBD20782021084357
:103A600020700920287000207CBD00001F0200008B
:103A70000000000030B50D461D491446096841227A
:103A8000520189180922D206096D126991B0891A6A
:103A9000184A09021288090A12070AD5002B08D110
:103AA000154AFF39914204D32246294601F02AFDE6
:103AB0001AE00146102204A801F0EDFA102229466E
:103AC00008A801F0E8FA04A8009008A801900CA842
:103AD0000290002069460873684601F053FD1022E9
:103AE0000CA9204601F0D7FA002011B030BD00002B
:103AF000B4000020C000002002FF7F0038B510484D
:103B0000002104680846AE3401F076FD694648702D
:103B10002079C10704D001216A46117088432071C1
:103B2000C0B2810705D502216A461170FD21084007
:103B3000207102216A46084601F07CFE38BD000073
:103B4000B4000020FEB539490922096812028A181A
:103B5000136B582242439C18412252018D1834495C
:103B6000800146182289208F2021895D521C2281E4
:103B700040006269002700B2101A6061F07A4018B4
:103B8000C0B2252800D32538F072A079C0072ED006
:103B9000284640300090408E2189401A0004000CD5
:103BA00025D123480C3800884007400F01F07CFEE7
:103BB0008446A07940084000A0712846C030017AB0
:103BC0004908490001720099A3894A8DC98D0905E8
:103BD000090C934205D1A3698B4202D16346002BA5
:103BE00001D0402701E008238373A281A161A0795D
:103BF000800719D57620405B2189401A0004000C0B
:103C000012D18021495960350091A97E0191A17995
:103C1000FD221140A1713146684605222131FEF78F
:103C20001CFB0120400507433846FEBDB4000020C0
:103C3000CC000020F0B58FB0076841680A9179493F
:103C4000794A0968008989180B910121099100219D
:103C50000891400514D50B988469C6692078617B6A
:103C600005072D0F8909012903D1C00901D00120C1
:103C700000E000200890022D0CD9062D08D109E0A3
:103C80000B983C6B066A207805072D0F042D01D098
:103C900000200990E0798009012804D120784006AD
:103CA00001D5012100E0002160480170E020C05DE5
:103CB00000283DD00120864600208446307813211C
:103CC00000901DE000200D9042182318B25C9B78F4
:103CD0009A4201D001220D92401CC0B20628F3D3B3
:103CE0007046002804D00D98002801D0012000E083
:103CF00000208646891F6046401CC0B2C9B2844677
:103D000000988445DED3704600287AD00098401C85
:103D1000C0B2042800D9042030701222711CF01D9A
:103D2000FEF79BFA314606221331A01CFEF795FAE6
:103D3000062D02D0022D02D002E0022500E003256C
:103D400020784006C00F0490012D0AD06078801FB3
:103D5000C606F60E3348F0210068095C012914D02C
:103D60002FE000266946204601F0C4FD2D4800687A
:103D7000E030007C0028EDD10098396888424FD1AE
:103D80000198796888424BD11BE0112189014118C3
:103D90000A7DFF2A15D025490B78012B01D102237A
:103DA0004B7037235A431218FF320132927E497802
:103DB000D2001018232252018018007B4018C0B294
:103DC0000490099800282BD00A982037807B02960F
:103DD0000094019038792A46049B0899FEF757F918
:103DE00000281DD10A982146807B029008310D4899
:103DF000009601910068A0300079C00702D0002031
:103E000001E00DE01020A1210843A31C2946049ADB
:103E100001F07AFD002803D00B980021006A0170A0
:103E20000FB0F0BDB400002004090000B80000206D
:103E3000FEB52D490B68412149015C180921090291
:103E400059180A6B7B2109015D18012601E0401C0D
:103E5000C0B2082842D22F7D314681400F42F6D0B1
:103E600058214143891889784907490F0529EED11E
:103E70000021009101917D2521466D02C0314D81C7
:103E800088735821484385181846052269464830EA
:103E9000FEF7E3F98020009901517A210198085535
:103EA000A8890622298950430930081887B2696B0E
:103EB0000E480860686B0522876068793043687136
:103EC000696B6846C91CFEF7C8F9A8790221C006CB
:103ED000C00E0843A8714034E786FEBDC034207A86
:103EE000FD2108402072FEBDB4000020030801003F
:103EF00002780907090F0A430270002070477047D3
:103F000030B50E4885B005682C46AE352879BA34F0
:103F1000400711D5E87A01280ED1152149026846DB
:103F200041800121017060886B46054A01F036FD31
:103F3000002801D10220E87205B030BDB400002095
:103F4000FFFF000003480249C16003494161704717
:103F500001A4041090000020299D04107FB5AC211D
:103F60008172817B05468A072A350446002A09DAD0
:103F700010220021684601F094F869462B460A4653
:103F8000AD250FE0C80701D1480719D521464A31B0
:103F90002246E07A5232000701D52B4601E0234643
:103FA0003A33AE2520890005000D01F037FD0028C9
:103FB0000BD03A2801D00C2800D1002004B070BDED
:103FC000C808C000A0734620F8E7A17BCA0703D049
:103FD00010221143A173F125C9B2C908C900A17308
:103FE000A572EBE710B57421095CC9070BD1817A82
:103FF000A42909D0AC2916D0AF2904D1417F0029CA
:1040000014D0D021817210BD04461021543001F02B
:1040100073FDE07A0007204602D5FEF7B7F810BD21
:1040200001F07AFD10BDFEF765F810BD01F0A7FDA7
:1040300010BD10B504684168A268FF20137B8A7A1E
:10404000002A0DD0F12A0BD0A12A0FD0A52A13D017
:10405000A62A04D1042B02D1204601F0ADFD10BDEB
:104060000B2BFCD1204601F019FE10BD022BFCD118
:10407000204601F055FE10BD032BFCD1204601F077
:1040800085FE10BD10B50146807AA92802D1002016
:1040900001F07CFE10BD70B50C460546FEF752F8E7
:1040A000002804D02146284601F09CFE70BD112056
:1040B00070BD704770B513490922096812020020CB
:1040C0008B18AC22525C1AE058241D6B44432C1907
:1040D00054252D5DED0610D5412040010818C03053
:1040E000428A018A608901F0A5FE3A2804D0403452
:1040F000207DEF210840207570BD401CC0B2824277
:10410000E2D870BDB4000020FFB50746464881B034
:1041100000880D46454909220968120240078A189D
:10412000400F126B582358431418412040010E18B9
:10413000FEF708F8002822D0142D04D0152D20D029
:10414000072D59D05CE02146039801F0D1FE0121F2
:10415000206989040843214640312061087D0222FC
:1041600010430875820609D56279520852006271BF
:10417000DF2210400875002F4ED151E0012005B01C
:10418000F0BD25464035287DC007F7D0214603986D
:1041900001F0AEFE204600F085F8002825D0A18F62
:1041A000E08F814200D20846E8806989A88981426F
:1041B00000D2084668822A89E9898A4200D21146DB
:1041C0002982628F2888824200D21046C9080E399F
:1041D00089B26880884200D30846A88004980068A5
:1041E00001214906084304990860287D40084000E1
:1041F0002875002F10D113E00398C078142802D03E
:10420000002005B0F0BD4034207D0421400840006E
:1042100008432075002F03D00820C036F073ADE7A7
:104220000820C036B073A9E7C0000020B400002009
:10423000F8B51C4615460E460746FDF783FF0028D5
:1042400005D001F071FE002803D00C20F8BD11202C
:10425000F8BD124941220968520189183A460020E6
:104260001B3AE12A00D330203346FF3B0C4A493B3E
:10427000934200D330202B461B3BE12B00D3302050
:104280002346FF3B493B934200D3302072B6C031F6
:104290008F82CE820D834C8362B6F8BDB4000020BD
:1042A0000107000070B50146403004884A8F0025A0
:1042B000944200D31446C28903899A4200D213461D
:1042C000CA8F898F8A4200D30A46868941898E42E5
:1042D00000D231464688A64200D00125C4889442C7
:1042E00000D00125028A9A4200D00125408A8842E6
:1042F00000D00125284670BD70B5032101F03AFEBB
:10430000082801D3022070BD26490922096812023B
:104310008918096B582250430C186079666B800726
:1043200001D03A2070BDE18FA08F01F067FE2546D5
:104330004035E880A989688901F060FE6882298893
:10434000608F01F05BFE6880E989288901F056FEE4
:104350002882C0080E3881B2688801F04FFEA8801C
:1043600011483060656B204602223C30E91CFDF7A5
:1043700074FF20460222691D4A30FDF76EFF204679
:104380000222E91D3A30FDF768FF29462046022245
:1043900009314830FDF761FF607901210843607100
:1043A000002070BDB400002003091500F0B5574D82
:1043B0001B20296880010818007E91B080076FD506
:1043C00001F036FE01286CD1002401F0D5FE06462E
:1043D00001F034FE012800D1032430007ED03727BD
:1043E00002267F01012802D002287CD13BE06946E9
:1043F000022001F081FE032008A901F07DFE002CBF
:1044000006D17921286809014118012001F074FEC4
:104410002868A421095CC90701D0002100E010210F
:104420000E43694611231091F10603D50922BF21DD
:104430000E4007E0C1194A78920654D589780906DA
:1044400051D507223107890E09180120C00208182A
:104450004069314600F068FF070044D0381D3C71C8
:104460004022109936E06946022001F045FE002CFA
:1044700004D02022FF21684600F013FE2868A42102
:10448000095CC90701D0002100E010210E436946F4
:1044900009230891F10605D50A22BF210E4009E043
:1044A00029E030E0C1194A7892061CD5C978C907BD
:1044B00019D008223107890E09180120C0020818F6
:1044C0004069314600F030FF07000CD03C71381DC8
:1044D00008992022401C00F0DEFD00E003E0394690
:1044E000304600F07FFF1B20296880010818017EFC
:1044F000FD221140017672B6286880224030C179D1
:104500001143C17162B611B0F0BD0000B4000020CB
:1045100010B5012813D10A4C08222068817E11436E
:104520008176202207493C3000F0B5FD054920681E
:10453000202220315C3000F0AEFD01F027FE10BDDE
:10454000B00000204062051030B50446C07A002556
:10455000000710D5208901F029FE002801D0082588
:1045600009E0E07A01210843E0720448042200686F
:10457000817E11438176284630BD0000B0000020C6
:1045800010B50A4C2068807E41060DD59021084266
:104590000AD101F02BFE002806D12168BF22887EB7
:1045A000104080221043887610BD0000B00000202B
:1045B00070B504680579E07A00072FD5208901F0ED
:1045C000F5FDE17A49084900E172154C002804D153
:1045D0002168FB238A7E1A408A762168002D05D047
:1045E000CA7E1032CA76002804D007E0C87E401C7C
:1045F000C87603E0887ECF221040887620680321A9
:10460000C07E05090007000FFCF761FF4019032871
:1046100004D301F009FE21680020C87670BD0000B7
:10462000B000002070B50D4D0178441C2868827ED2
:104630005206520E8276002902D001F0F5FD70BDBF
:1046400001F0FEFD002802D001F0A0FD70BD286839
:10465000402221463C3000F01EFD70BDB00000201D
:1046600070B51A4C02782368411C987EC00626D586
:10467000002A05D0164800210068A030027B21E006
:1046800018462022D03000F006FD20682022817ECE
:10469000114313E07C20DD6F4843281810D00589B2
:1046A000002D0DD0C57A2D060AD5012300220B213D
:1046B00001F0CEFD2068CF22817E1140817670BD51
:1046C000491CC9B28A42E5D870BD0000B000002084
:1046D000B400002010B50B4A016812688968927D09
:1046E0004068C97B022A03D10A0701D4032010BD08
:1046F0001823C27ADB4319430A40C272FDF72CFD2E
:1047000010BD0000B000002010B5C17F012908D005
:10471000042906D0022907D0032901D101F0AEFDFA
:1047200010BDA521817210BDC17B491CC17301F070
:10473000F3F910BD10B5C17F012908D0042906D0B6
:10474000022909D0032901D101F098FD10BD0146CD
:10475000002001F0D9FD10BDC17B491CC173B521FA
:10476000817210BD38B514C8D07F02280FD1084817
:10477000D17B0068491E03690094CB40DB070146EA
:10478000DB0F90313C305432803301F0FAFD38BDFC
:10479000B000002038B514C8D17F0023032904D00D
:1047A0000C480229006804D00AE0AA209072EB208D
:1047B00038BDD17B0369491ECB40DB07DB0F80335B
:1047C00001463C3190306432009401F0DAFD002063
:1047D00038BD0000B00000201CB50446C07F04288E
:1047E00006D0AA21022820D0012800D1A1721CBD28
:1047F00001A8009010482346006822460146643311
:10480000543290313C3001F0E4FDB920A07201A88F
:1048100001F00BFE0949FCF75AFE20890A46010502
:10482000090D022001F00CFE1CBDE07B1428DDD236
:10483000A420A0721CBD0000B000002040420F0068
:1048400038B514C80A48D17F00230068022906D170
:10485000D17B0369491ECB40DB07DB0F8033014668
:1048600090313C306432009401F08BFD38BD000083
:10487000B0000020FEB50468416802918668C568F2
:10488000BA20287000203060E17F1F4804291ED024
:1048900002291BD10068E77B01697A1ED140CB0752
:1048A000029900910146DB0F224654323C31903090
:1048B000803301F066FD214610222A31029800F073
:1048C000FAFB3060142F01D2B4202870FEBD01A97C
:1048D00000910068234601462246643354323C313D
:1048E000903001F076FDB920287001A801F09DFDFF
:1048F0000649FCF7ECFD20890A460105090D022056
:1049000001F09EFDFEBD0000B000002040420F00FF
:1049100070B50446174801250268402100203C324A
:1049200001F0BAFD00280AD1134879210068090175
:1049300042182021002001F0AFFD002803D00025FF
:1049400001F072FC0EE0E07AC1434906890F09D0FC
:104950007421095D0025C90706D0400602D520460E
:1049600001F0AAFD284670BD8106FBD49B210840BA
:10497000E072F4E7B0000020B400002010B5044657
:10498000807AAA280BD0BA2809D0B92810D0742070
:10499000005DC00702D12046FDF7B8FB10BD2046E0
:1049A00001F0C0FD0028F9D0012300220B210DE009
:1049B000E07F0428F2D1E07E410602D5BA20A07241
:1049C00010BD0006FCD5012300220C21204601F079
:1049D0003FFC10BD10B5036841689A68FF20147B46
:1049E0008A7AA22A0BD0B22A09D0AB2A01D0BB2ADC
:1049F00004D10D2C02D1184601F0E6FD10BD0C2C9F
:104A0000FCD17422525CD207CA7A05D05206F5D482
:104A1000184601F013FE10BD9206F9D410BD704780
:104A2000F8B5026841689268FF20137B0E2B13D102
:104A3000CB7ADB0610D5CB7F022B0DD14B7E022B20
:104A40000AD174235B5CDB078B7A06D0B22B0AD0C9
:104A5000B42B08D0B52B06D0F8BDA22B03D0A42BC5
:104A600001D0A52BF8D10889372105050D4849014A
:104A7000006802264118C97A2D0D547B012349068E
:104A80000ED502218F020830C0191C22406900F0A7
:104A90004BFC010004D08D808C71304600F0A2FCEC
:104AA0000020F8BDB40000200178407800020843DF
:104AB00070470178427813028278C07812040006A9
:104AC00010431843084370470648016849204001D5
:104AD0000818017A807A814201D9012070470020AC
:104AE00070470000B4000020F8B50D460E490923B8
:104AF00009681B02C918CE6A1F21521E0A431D32C3
:104B000097B20024394601F0EDFD00280AD139465C
:104B1000B06801F00FFE044608340068A060002071
:104B2000E074A5802046F8BDB400002070B50C46A6
:104B30001F21521E0A430546521C002011044E0D2F
:104B400017D0214608316A1A2846002A01DD082AB2
:104B500003DB202201F006FE04E0082208C9521EF1
:104B600008C0FBD120352046761E24683604360C5A
:104B7000E7D170BD08B56420694608700921C906EF
:104B80006A461078401E10704869C00402D410783C
:104B90000028F5D1107808BDCA6802608A684260B2
:104BA0004A6882600968C160704710B50446803465
:104BB000606C002803D000F0E5FC0020606410BDAC
:104BC0000B497B22096812018A182032927E363105
:104BD0001207120F824206D009780A0705D4490746
:104BE000490F814201D10120704700207047000029
:104BF000B400002002880B8803800A807047704749
:104C000030B41348092203680120C0021818D206E4
:104C1000006F11690F4C411A09022588090A2D07F6
:104C200002D430BC01207047647A9B6AE400E31828
:104C30008B4209D20123DB05994205D25900084372
:104C4000506030BC0120704730BC0020704700002D
:104C5000B4000020C0000020F1B5B04A7B211068EC
:104C6000090190B0411804914121490145180446B9
:104C7000C034014636310D9100210291A849497A8C
:104C8000C9000C91816A0B91049920310E91897EA3
:104C9000079108297ED2092109024018016B1746A5
:104CA00007985822504308180890079881019C489B
:104CB0000C3008180A90C07A2E4640360990B08B06
:104CC00001F060FD39684031098E401880B20390D0
:104CD000E96C039801F064FDE96C09020F1AB07FDA
:104CE00001F063FD3818FDF7A7F9A96C41180C987D
:104CF000081A0002000A01901099411A0B98081A2C
:104D000000020121000AC90588427DD20499019858
:104D100048630998FDF722FC0A99C8720D9800783B
:104D2000C143090706D041070798490F4007400FC4
:104D300081422BD10E980821807E08430D9908707E
:104D4000A86C2060E86C60600198A0600298E06048
:104D5000A86D2061686D6061B08B2083B07FA07604
:104D6000284660300178E176B18CA183318DE183F2
:104D7000B18D2184318E6184B18EA184318FE18423
:104D8000C17E2820015584204059E0620D980078AA
:104D9000420700E07BE00799520F4907490F8A421A
:104DA00061D0F72108400D995C4F08704007400F13
:104DB00007900920396800020818016B07985822EB
:104DC0005043081804900798810155480C30081882
:104DD0000A90C07A0990208B01F0D4FC39684031E8
:104DE000098E401880B203906168039801F0D8FCE6
:104DF000616809020F1AA07E01F0D7FC3818FDF790
:104E00001BF92168411800E043E00C98081A0702DA
:104E100010983F0A391A0B98081A00020121000A5B
:104E2000C905884257D2A7600998FDF797FB0A99F0
:104E3000C87201980899C01B00024979000A9022A3
:104E4000114210D10121C90588420AD30498C17BBF
:104E50000898C07B401C814203D804984079C00662
:104E600001D501F0A9FCE96C039801F043FD04466B
:104E7000B07F01F047FDA96D2018401807210905F2
:104E800008438035A96B0322091DFDF713FB11B000
:104E9000F0BD0898008F41000A98203002780998E8
:104EA000101880B209900898089A0089401C108157
:104EB00008984069421A089842610898C07BFF2808
:104EC00002D2089A401CD073E86C4018E864079836
:104ED00001F020FDFCE604980A99008F4000203183
:104EE0000A780999511889B209910499049A098993
:104EF000491C1181049949690A1A04994A61049963
:104F0000C97BFF2902D2049A491CD1736168081831
:104F10006060079801F0FEFC66E70000B400002026
:104F2000C000002008B500216A461180694601F0E2
:104F300053FD08BD4101401880097047F8B501468E
:104F40001B480922006812028218136B58224A4338
:104F50009E18412252018518164A88018718B07898
:104F600000244007400F052802D0012805D010E09A
:104F70000846FDF7A7F804460BE02A468032108A5F
:104F8000002802D0401E108203E001240846FDF7ED
:104F9000F3FAF07BFF2801D2401CF073002C06D0FE
:104FA0002346324629460020009701F02DFDF8BD2A
:104FB000B4000020CC00002000210B200007026874
:104FC00052070DD5026804239A4302600268082341
:104FD0001A43026004E0491C052901DD00207047E6
:104FE00042689207F7D54168C907FCD0806880B253
:104FF00070477047FEB50F484121006849014418C9
:105000000D4906224118684600F045F8A66BE56B8D
:10501000636B246C00206A46811C175C5F54175C2C
:105020007754175C6F54175C401C67540628F3DBF9
:105030000020FEBDB4000020EF0600007CB50E4C41
:105040000E492068062245180D494118684600F0AF
:1050500022F8296A06226846891CFDF7FEF8092114
:10506000206809024018016D06226846891CFDF778
:10507000F4F800207CBD0000B4000020040900000A
:10508000EF06000010B5FFF797FF0446FFF794FF07
:105090000004201810BD10B50400FCF7A7F820008C
:1050A00010BD10B50400080011000200200001F03E
:1050B000A9FF200010BD80B501F0CEFF02BD7047F2
:1050C000C3788278417800781B021A4309021204DF
:1050D0000843104370477047F0B4074611489D22BB
:1050E0000068D200801884460F2610220020520843
:1050F0008318DBB2B3420FD2DC00644425686468D5
:105100002402A14203D8A14206D1AF4204D31846DB
:10511000AF4201D1A14202D0002AE8D1FF20F0BC69
:1051200070470000B4000020F3B506468DB0FF20A4
:105130003E4C03903E49206847189D21C900401805
:1051400004903146022001F097FFFF284ED1002045
:1051500005902320216840010918097A002935D9D2
:10516000F8793721484321680E9B45182846FF30BF
:105170001F3084462F483179017071794170B179BF
:1051800081700146FF3506AA60461B35FEF772FCAA
:105190000322711C06A8FFF78EFF002829D0287D66
:1051A000012806D1072239463046FFF784FF002840
:1051B0001FD005980837401CC0B2059023202168F5
:1051C00040010818017A05988142C9D82168002059
:1051D000E03148743146022001F090FF226801213D
:1051E000E0325174FF2801D0FE20039003980FB0E5
:1051F000F0BD0598039021680020E031487469787B
:10520000012002F073F83146012001F077FF687049
:10521000C2000498F9791018C17121680120E031A9
:1052200048740398FF28D1D0E0E70000B4000020C4
:105230006C04000040040020F0B407461048114AF6
:1052400000680F2680188446102200205208831818
:10525000DBB2B3420FD2DC006444256864682402E8
:10526000A14203D8A14206D1AF4204D31846AF42AF
:1052700001D1A14202D0002AE8D1FF20F0BC704742
:10528000B40000206C040000F0B4144A2F2312680C
:105290005B01D21894461F27202200245208A3182D
:1052A000DBB2BB4214D2DD0065442E686D682D026E
:1052B000A94203D8A9420BD1B04209D31C46B0423F
:1052C00006D1A94204D1FF2B04D0F0BC01207047C5
:1052D000002AE3D1F0BC002070470000B400002099
:1052E00010B50920C00600690002000A02F094F817
:1052F00010BD000010B50C460B790A4984B00B7044
:1053000063794B70A3798B7013466A46FEF7B2FB44
:105310000322611C6846FFF7CEFE002800D0012062
:1053200004B010BD40040020FFB5044600262C4FF9
:1053300083B09C460D46080616D572B601AB6A4688
:105340006146204602F07AF800280BD06846818832
:105350000098827892089200827001806180012614
:1053600062B615E062B621E001AB6A4661462046AE
:1053700002F064F8002819D0680609D468468188CC
:1053800000988278920892008270018061800126E4
:105390000098AA00817840238907890F1A40114399
:1053A00081700599C170002E0ED115E0002000908B
:1053B00072B6A8060FD401203968C0020818016827
:1053C00008221143016062B672B63868F722403095
:1053D000C1791140C17162B6009807B0F0BD0000FC
:1053E000B40000200A46400608D5D0783A280AD2F0
:1053F000111D054B80001B581046184790788008F7
:105400008000801C8870704774430510FFB504232A
:105410000546C1061F4881B00C9E006803D50C22CA
:10542000BF210D400CE03721490141184A7892060E
:1054300002D5C978490702D4002005B0F0BD0A2280
:105440002907890E08180121C90240184069294618
:10545000FFF76AFF040019D0029820710398607169
:10546000271D0622A01D0499FFF715FE0A98387221
:105470003846062209300B99FFF70DFEFE732146D0
:105480002846FFF7AFFF002005B0F0BD072005B0AC
:10549000F0BD0000B400002010B56421064C484364
:1054A000216880314867FFF71BFF216880318867DA
:1054B0000020C86710BD0000B400002070B505468C
:1054C000002440782646022801D0042803D1FCF7A6
:1054D000F3FD00280DD00848372100684901031961
:1054E0002A5D5B18641CE4B29A70082CF7D330462E
:1054F00070BD1126FBE70000B400002010B501F0DC
:10550000D3FF10BDF0B50F46B5B01546002130AA47
:105510000F23445C5E1A491C94551029F9DB1022B4
:10552000694630A801F0D0FF0026B400E019401C05
:10553000FFF7C6FD395D000208430321891B89007E
:105540002CAC761C6050042EEFDB214610236A46FB
:10555000084601F0D5FF00200326311A8900635C5C
:105560008200AB54635A52191B0A53706358401C93
:105570001B0C93706158090ED1700428EDDB35B017
:10558000F0BD000018B40168184ACB6813608C683D
:10559000012354604C6894600968D1604168144AE2
:1055A000CC6814608C6854604C6894600968D16061
:1055B00064216A4611700922D2066C462178491E80
:1055C00021705169C90402D421780029F5D12278CB
:1055D0002270084A8168D4680C6094684C605468F2
:1055E0008C601268CA60037318BC704718000048CA
:1055F0002800004838000048F3B5054687488DB0BC
:105600000168412040010F1885480C187B200001DB
:1056100008180490092000020818006B069002F098
:10562000A1F80646E0210E98C8553046082E0AD249
:10563000002D7DD172B6FCF79FFF62B6304602F0B6
:10564000B5F80025E6E0002D72D038468030C168FC
:1056500002918568734808904226002009960C90B4
:1056600002F0E2F805AB2A460390029902F0F6F840
:1056700001210546490405E0800805900C98401C6E
:10568000C0B20C9005988842F6D80C980599800411
:1056900040180B2109054018059078684021800AC0
:1056A00008405E49C01C0A68092109025118096DA9
:1056B00008705A480C210268092000021018006D79
:1056C0004170564839680268092000021018006DC0
:1056D000801C02F00DF951480168092000020818E9
:1056E000016DB8888871000AC8714C4801680920AA
:1056F00000020818C16C9031A161C16C603139633E
:10570000C16C3031E161C06C2062E1690020087039
:10571000216A0870A0696168E2685080E0680180D1
:10572000388EE16862685080606801803B4800E024
:105730006FE00168092000020818006D21682268E6
:105740005080206801800021099A2368C81D1A54DE
:10575000E268165462681654059AE368081D1A54E4
:10576000089A63681A54059A23681A540998491CC0
:10577000000A09900598360A000A05900898C9B2EF
:10578000000A08900329DFD30398E268400101462C
:10579000133191722168887261688872E06803230E
:1057A000C37220680121C1726068C372039808281F
:1057B0002BD2002D2ED11C4A80018018002282722B
:1057C0002726C67226680682E4684482174CC461A4
:1057D000174C846120242154C275039858246043D7
:1057E000069C0019427172B6049C039E247DB14050
:1057F000837021430023DB434381C2730498017506
:1058000062B6204602F07CF804E0002D02D141256A
:1058100000E00C2528460FB0F0BD0000B4000020C9
:10582000040900002C01B000CC00002055555500A3
:10583000D6BE898EF8B5891ECDB20646A81C0321B6
:105840000843401C8308174817460068F10603D533
:105850001C22BF210E4008E0372149014118897AF6
:10586000090601D40020F8BD19223107890E081855
:105870000121C902401840693146FFF755FD040077
:105880000ED03978217179786171A5712A46B91CD9
:10589000E01DFFF700FC21463046FFF7A3FDE1E7DE
:1058A0000720F8BDB400002010B511497B2209681B
:1058B000120189184C688B6842009C4204D1086B25
:1058C0004C8A805AA04201D0012000E000204B60A9
:1058D0008B688B614C6A8B89A3528C6ACB89A352EB
:1058E0000C6B4B8AA3520B8AC96A8B5210BD000005
:1058F000B400002010B50B460178CA0901460831F2
:10590000184602F065F810BDFFB581B006460A984A
:10591000032113300843401C83081F48F106006828
:1059200003D50722BF210E400CE037214901411861
:105930004A78920602D58978890702D4002005B0FA
:10594000F0BD05223107890E08180121C90240184F
:1059500040693146FFF7E8FC05001AD0029828712B
:10596000039868712C462F1D18340622A81D04992F
:10597000FFF791FB0A983872FC6020460A9A0B994F
:10598000FFF789FB0C98387429463046FFF72AFD4B
:10599000D4E70720D3E70000B4000020FFB589B0AA
:1059A000074646251E781022991C05A8FBF71EFC09
:1059B000012E04D0022E02D042200DB0F0BD384698
:1059C00002F015F8040024D0202239460020FFF709
:1059D0008BF807001CD005AD04960FCD6D460FC5A2
:1059E000394620460B9B0A9A02F00DF8050004D0B8
:1059F0000021384602F042F80BE0012120694903FA
:105A0000084320610448A061384602F055F800E0E0
:105A100064252846D1E700001D730510FFB5344802
:105A20000E46006841214901451887B01F461446BB
:105A3000304602F057F80190301D02F053F8009004
:105A40002078617802AE0C0204430221079800F02E
:105A500091FA00213A783270491CC9B2761C7F1C39
:105A60001029F7D3082802D302200BB0F0BDC035AF
:105A7000A97B082901D20C20F7E71D4909220968F2
:105A8000120289180A6B58214143511872B64A799B
:105A9000920702D062B63A20E7E77D2252026A817D
:105AA000A8734A6B134810600869020504D5487949
:105AB00001221043487103E00122120310430861E0
:105AC0004A6B019850604A6B009890604A6B02984C
:105AD000D0604A6B039810614A6B049850614A6B1E
